{
  "_format": "hh-sol-artifact-1",
  "contractName": "HTLCEscrow",
  "sourceName": "contracts/HTLCEscrow.sol",
  "abi": [
    {
      "inputs": [
        {
          "internalType": "address",
          "name": "admin",
          "type": "address"
        }
      ],
      "stateMutability": "nonpayable",
      "type": "constructor"
    },
    {
      "inputs": [],
      "name": "AccessControlBadConfirmation",
      "type": "error"
    },
    {
      "inputs": [
        {
          "internalType": "address",
          "name": "account",
          "type": "address"
        },
        {
          "internalType": "bytes32",
          "name": "neededRole",
          "type": "bytes32"
        }
      ],
      "name": "AccessControlUnauthorizedAccount",
      "type": "error"
    },
    {
      "inputs": [],
      "name": "AlreadyExpired",
      "type": "error"
    },
    {
      "inputs": [],
      "name": "EnforcedPause",
      "type": "error"
    },
    {
      "inputs": [],
      "name": "ExpectedPause",
      "type": "error"
    },
    {
      "inputs": [],
      "name": "InvalidAddress",
      "type": "error"
    },
    {
      "inputs": [],
      "name": "InvalidAmount",
      "type": "error"
    },
    {
      "inputs": [],
      "name": "InvalidExpiry",
      "type": "error"
    },
    {
      "inputs": [],
      "name": "InvalidHashLock",
      "type": "error"
    },
    {
      "inputs": [],
      "name": "InvalidSecret",
      "type": "error"
    },
    {
      "inputs": [],
      "name": "NotAuthorized",
      "type": "error"
    },
    {
      "inputs": [],
      "name": "NotYetExpired",
      "type": "error"
    },
    {
      "inputs": [],
      "name": "ReentrancyGuardReentrantCall",
      "type": "error"
    },
    {
      "inputs": [
        {
          "internalType": "address",
          "name": "token",
          "type": "address"
        }
      ],
      "name": "SafeERC20FailedOperation",
      "type": "error"
    },
    {
      "inputs": [],
      "name": "TransferExists",
      "type": "error"
    },
    {
      "inputs": [],
      "name": "TransferNotLocked",
      "type": "error"
    },
    {
      "anonymous": false,
      "inputs": [
        {
          "indexed": false,
          "internalType": "address",
          "name": "account",
          "type": "address"
        }
      ],
      "name": "Paused",
      "type": "event"
    },
    {
      "anonymous": false,
      "inputs": [
        {
          "indexed": true,
          "internalType": "bytes32",
          "name": "role",
          "type": "bytes32"
        },
        {
          "indexed": true,
          "internalType": "bytes32",
          "name": "previousAdminRole",
          "type": "bytes32"
        },
        {
          "indexed": true,
          "internalType": "bytes32",
          "name": "newAdminRole",
          "type": "bytes32"
        }
      ],
      "name": "RoleAdminChanged",
      "type": "event"
    },
    {
      "anonymous": false,
      "inputs": [
        {
          "indexed": true,
          "internalType": "bytes32",
          "name": "role",
          "type": "bytes32"
        },
        {
          "indexed": true,
          "internalType": "address",
          "name": "account",
          "type": "address"
        },
        {
          "indexed": true,
          "internalType": "address",
          "name": "sender",
          "type": "address"
        }
      ],
      "name": "RoleGranted",
      "type": "event"
    },
    {
      "anonymous": false,
      "inputs": [
        {
          "indexed": true,
          "internalType": "bytes32",
          "name": "role",
          "type": "bytes32"
        },
        {
          "indexed": true,
          "internalType": "address",
          "name": "account",
          "type": "address"
        },
        {
          "indexed": true,
          "internalType": "address",
          "name": "sender",
          "type": "address"
        }
      ],
      "name": "RoleRevoked",
      "type": "event"
    },
    {
      "anonymous": false,
      "inputs": [
        {
          "indexed": true,
          "internalType": "bytes32",
          "name": "transferId",
          "type": "bytes32"
        },
        {
          "indexed": true,
          "internalType": "address",
          "name": "sender",
          "type": "address"
        }
      ],
      "name": "TransferCancelled",
      "type": "event"
    },
    {
      "anonymous": false,
      "inputs": [
        {
          "indexed": true,
          "internalType": "bytes32",
          "name": "transferId",
          "type": "bytes32"
        },
        {
          "indexed": true,
          "internalType": "address",
          "name": "recipient",
          "type": "address"
        }
      ],
      "name": "TransferClaimed",
      "type": "event"
    },
    {
      "anonymous": false,
      "inputs": [
        {
          "indexed": true,
          "internalType": "bytes32",
          "name": "transferId",
          "type": "bytes32"
        },
        {
          "indexed": true,
          "internalType": "address",
          "name": "sender",
          "type": "address"
        },
        {
          "indexed": true,
          "internalType": "bytes32",
          "name": "hashLock",
          "type": "bytes32"
        },
        {
          "indexed": false,
          "internalType": "address",
          "name": "token",
          "type": "address"
        },
        {
          "indexed": false,
          "internalType": "uint96",
          "name": "amount",
          "type": "uint96"
        },
        {
          "indexed": false,
          "internalType": "uint40",
          "name": "expiry",
          "type": "uint40"
        }
      ],
      "name": "TransferLocked",
      "type": "event"
    },
    {
      "anonymous": false,
      "inputs": [
        {
          "indexed": true,
          "internalType": "bytes32",
          "name": "transferId",
          "type": "bytes32"
        },
        {
          "indexed": true,
          "internalType": "address",
          "name": "refundAddress",
          "type": "address"
        }
      ],
      "name": "TransferRefunded",
      "type": "event"
    },
    {
      "anonymous": false,
      "inputs": [
        {
          "indexed": false,
          "internalType": "address",
          "name": "account",
          "type": "address"
        }
      ],
      "name": "Unpaused",
      "type": "event"
    },
    {
      "inputs": [],
      "name": "DEFAULT_ADMIN_ROLE",
      "outputs": [
        {
          "internalType": "bytes32",
          "name": "",
          "type": "bytes32"
        }
      ],
      "stateMutability": "view",
      "type": "function"
    },
    {
      "inputs": [],
      "name": "PAUSER_ROLE",
      "outputs": [
        {
          "internalType": "bytes32",
          "name": "",
          "type": "bytes32"
        }
      ],
      "stateMutability": "view",
      "type": "function"
    },
    {
      "inputs": [
        {
          "internalType": "bytes32",
          "name": "transferId",
          "type": "bytes32"
        }
      ],
      "name": "cancel",
      "outputs": [],
      "stateMutability": "nonpayable",
      "type": "function"
    },
    {
      "inputs": [
        {
          "internalType": "bytes32",
          "name": "transferId",
          "type": "bytes32"
        },
        {
          "internalType": "bytes32",
          "name": "secret",
          "type": "bytes32"
        }
      ],
      "name": "claim",
      "outputs": [],
      "stateMutability": "nonpayable",
      "type": "function"
    },
    {
      "inputs": [
        {
          "internalType": "bytes32",
          "name": "role",
          "type": "bytes32"
        }
      ],
      "name": "getRoleAdmin",
      "outputs": [
        {
          "internalType": "bytes32",
          "name": "",
          "type": "bytes32"
        }
      ],
      "stateMutability": "view",
      "type": "function"
    },
    {
      "inputs": [
        {
          "internalType": "bytes32",
          "name": "transferId",
          "type": "bytes32"
        }
      ],
      "name": "getTransfer",
      "outputs": [
        {
          "components": [
            {
              "internalType": "address",
              "name": "sender",
              "type": "address"
            },
            {
              "internalType": "address",
              "name": "token",
              "type": "address"
            },
            {
              "internalType": "uint96",
              "name": "amount",
              "type": "uint96"
            },
            {
              "internalType": "bytes32",
              "name": "hashLock",
              "type": "bytes32"
            },
            {
              "internalType": "uint40",
              "name": "expiry",
              "type": "uint40"
            },
            {
              "internalType": "enum HTLCEscrow.Status",
              "name": "status",
              "type": "uint8"
            }
          ],
          "internalType": "struct HTLCEscrow.Transfer",
          "name": "",
          "type": "tuple"
        }
      ],
      "stateMutability": "view",
      "type": "function"
    },
    {
      "inputs": [
        {
          "internalType": "bytes32",
          "name": "role",
          "type": "bytes32"
        },
        {
          "internalType": "address",
          "name": "account",
          "type": "address"
        }
      ],
      "name": "grantRole",
      "outputs": [],
      "stateMutability": "nonpayable",
      "type": "function"
    },
    {
      "inputs": [
        {
          "internalType": "bytes32",
          "name": "role",
          "type": "bytes32"
        },
        {
          "internalType": "address",
          "name": "account",
          "type": "address"
        }
      ],
      "name": "hasRole",
      "outputs": [
        {
          "internalType": "bool",
          "name": "",
          "type": "bool"
        }
      ],
      "stateMutability": "view",
      "type": "function"
    },
    {
      "inputs": [
        {
          "components": [
            {
              "internalType": "bytes32",
              "name": "transferId",
              "type": "bytes32"
            },
            {
              "internalType": "address",
              "name": "token",
              "type": "address"
            },
            {
              "internalType": "address",
              "name": "fundingWallet",
              "type": "address"
            },
            {
              "internalType": "uint96",
              "name": "amount",
              "type": "uint96"
            },
            {
              "internalType": "bytes32",
              "name": "hashLock",
              "type": "bytes32"
            },
            {
              "internalType": "uint40",
              "name": "expiry",
              "type": "uint40"
            }
          ],
          "internalType": "struct HTLCEscrow.LockParams",
          "name": "params",
          "type": "tuple"
        },
        {
          "components": [
            {
              "internalType": "bool",
              "name": "enabled",
              "type": "bool"
            },
            {
              "internalType": "uint256",
              "name": "value",
              "type": "uint256"
            },
            {
              "internalType": "uint256",
              "name": "deadline",
              "type": "uint256"
            },
            {
              "internalType": "uint8",
              "name": "v",
              "type": "uint8"
            },
            {
              "internalType": "bytes32",
              "name": "r",
              "type": "bytes32"
            },
            {
              "internalType": "bytes32",
              "name": "s",
              "type": "bytes32"
            }
          ],
          "internalType": "struct HTLCEscrow.PermitInput",
          "name": "permit",
          "type": "tuple"
        }
      ],
      "name": "lockFunds",
      "outputs": [],
      "stateMutability": "nonpayable",
      "type": "function"
    },
    {
      "inputs": [
        {
          "internalType": "address",
          "name": "",
          "type": "address"
        }
      ],
      "name": "lockedBalance",
      "outputs": [
        {
          "internalType": "uint256",
          "name": "",
          "type": "uint256"
        }
      ],
      "stateMutability": "view",
      "type": "function"
    },
    {
      "inputs": [],
      "name": "pause",
      "outputs": [],
      "stateMutability": "nonpayable",
      "type": "function"
    },
    {
      "inputs": [],
      "name": "paused",
      "outputs": [
        {
          "internalType": "bool",
          "name": "",
          "type": "bool"
        }
      ],
      "stateMutability": "view",
      "type": "function"
    },
    {
      "inputs": [
        {
          "internalType": "bytes32",
          "name": "transferId",
          "type": "bytes32"
        }
      ],
      "name": "refund",
      "outputs": [],
      "stateMutability": "nonpayable",
      "type": "function"
    },
    {
      "inputs": [
        {
          "internalType": "bytes32",
          "name": "role",
          "type": "bytes32"
        },
        {
          "internalType": "address",
          "name": "callerConfirmation",
          "type": "address"
        }
      ],
      "name": "renounceRole",
      "outputs": [],
      "stateMutability": "nonpayable",
      "type": "function"
    },
    {
      "inputs": [
        {
          "internalType": "bytes32",
          "name": "role",
          "type": "bytes32"
        },
        {
          "internalType": "address",
          "name": "account",
          "type": "address"
        }
      ],
      "name": "revokeRole",
      "outputs": [],
      "stateMutability": "nonpayable",
      "type": "function"
    },
    {
      "inputs": [
        {
          "internalType": "bytes4",
          "name": "interfaceId",
          "type": "bytes4"
        }
      ],
      "name": "supportsInterface",
      "outputs": [
        {
          "internalType": "bool",
          "name": "",
          "type": "bool"
        }
      ],
      "stateMutability": "view",
      "type": "function"
    },
    {
      "inputs": [
        {
          "internalType": "bytes32",
          "name": "transferId",
          "type": "bytes32"
        }
      ],
      "name": "transferStatus",
      "outputs": [
        {
          "internalType": "enum HTLCEscrow.Status",
          "name": "",
          "type": "uint8"
        }
      ],
      "stateMutability": "view",
      "type": "function"
    },
    {
      "inputs": [],
      "name": "unpause",
      "outputs": [],
      "stateMutability": "nonpayable",
      "type": "function"
    }
  ],
  "bytecode": "0x60806040523480156200001157600080fd5b506040516200162538038062001625833981016040819052620000349162000176565b60016002556001600160a01b038116620000855760405162461bcd60e51b815260206004820152600e60248201526d18591b5a5b881c995c5d5a5c995960921b604482015260640160405180910390fd5b62000092600082620000c7565b50620000bf7f65d7a28e3265b37a6474929f336521b332c1681b933f6cb9f3376673440d862a82620000c7565b5050620001a8565b6000828152602081815260408083206001600160a01b038516845290915281205460ff166200016c576000838152602081815260408083206001600160a01b03861684529091529020805460ff19166001179055620001233390565b6001600160a01b0316826001600160a01b0316847f2f8788117e7eff1d82e926ec794901d17c78024a50270940304540a733656f0d60405160405180910390a450600162000170565b5060005b92915050565b6000602082840312156200018957600080fd5b81516001600160a01b0381168114620001a157600080fd5b9392505050565b61146d80620001b86000396000f3fe608060405234801561001057600080fd5b50600436106101165760003560e01c80638456cb59116100a2578063a217fddf11610071578063a217fddf14610243578063bfd790301461024b578063c4d252f514610286578063d547741f14610299578063e63ab1e9146102ac57600080fd5b80638456cb59146101f557806384cc9dfb146101fd57806391d14854146102105780639ae697bf1461022357600080fd5b80632f2ff15d116100e95780632f2ff15d146101a957806336568abe146101bc5780633f4ba83a146101cf5780635c975abb146101d75780637249fbb6146101e257600080fd5b806301ffc9a71461011b578063232d9cef14610143578063248a9ca314610158578063260958a514610189575b600080fd5b61012e6101293660046111a3565b6102d3565b60405190151581526020015b60405180910390f35b6101566101513660046111ec565b61030a565b005b61017b610166366004611222565b60009081526020819052604090206001015490565b60405190815260200161013a565b61019c610197366004611222565b610703565b60405161013a9190611273565b6101566101b73660046112f8565b6107e1565b6101566101ca3660046112f8565b61080c565b610156610844565b60015460ff1661012e565b6101566101f0366004611222565b610879565b6101566109f4565b61015661020b36600461131b565b610a26565b61012e61021e3660046112f8565b610bb0565b61017b61023136600461133d565b60046020526000908152604090205481565b61017b600081565b610279610259366004611222565b60009081526003602081905260409091200154600160281b900460ff1690565b60405161013a9190611358565b610156610294366004611222565b610bd9565b6101566102a73660046112f8565b610d26565b61017b7f65d7a28e3265b37a6474929f336521b332c1681b933f6cb9f3376673440d862a81565b60006001600160e01b03198216637965db0b60e01b148061030457506301ffc9a760e01b6001600160e01b03198316145b92915050565b610312610d4b565b61031a610d71565b61032382610d99565b6103306020820182611366565b1561040a57610345604083016020840161133d565b6001600160a01b031663d505accf610363606085016040860161133d565b306020850135604086013561037e6080880160608901611388565b6040516001600160e01b031960e088901b1681526001600160a01b0395861660048201529490931660248501526044840191909152606483015260ff166084820152608084013560a482015260a084013560c482015260e401600060405180830381600087803b1580156103f157600080fd5b505af1158015610405573d6000803e3d6000fd5b505050505b81356000908152600360205260408120906003820154600160281b900460ff16600481111561043b5761043b61123b565b1461045957604051636f6df15960e11b815260040160405180910390fd5b6104a761046c606085016040860161133d565b3061047d60808701606088016113ab565b6001600160601b0316610496604088016020890161133d565b6001600160a01b0316929190610ea5565b6040518060c001604052808460400160208101906104c5919061133d565b6001600160a01b031681526020018460200160208101906104e6919061133d565b6001600160a01b0316815260200161050460808601606087016113ab565b6001600160601b031681526080850135602082015260400161052c60c0860160a087016113d4565b64ffffffffff168152602001600190528335600090815260036020818152604092839020845181546001600160a01b039182166001600160a01b031990911617825591850151938501516001600160601b0316600160a01b0293909116929092176001830155606083015160028301556080830151908201805464ffffffffff90921664ffffffffff1983168117825560a08501519265ffffffffffff191617600160281b8360048111156105e3576105e361123b565b02179055506105fb91505060808401606085016113ab565b6001600160601b031660046000610618604087016020880161133d565b6001600160a01b03166001600160a01b0316815260200190815260200160002060008282546106479190611411565b90915550506080830135610661606085016040860161133d565b6001600160a01b031684357fa78cc8a99ea14bd3cf2694f1dac6d055ac00cabdb4cf43e715c793610ed3947961069d604088016020890161133d565b6106ad6080890160608a016113ab565b6106bd60c08a0160a08b016113d4565b604080516001600160a01b0390941684526001600160601b03909216602084015264ffffffffff169082015260600160405180910390a4506106ff6001600255565b5050565b6107396040805160c08101825260008082526020820181905291810182905260608101829052608081018290529060a082015290565b600082815260036020818152604092839020835160c08101855281546001600160a01b039081168252600183015490811693820193909352600160a01b9092046001600160601b031693820193909352600283015460608201529082015464ffffffffff8116608083015290919060a0830190600160281b900460ff1660048111156107c7576107c761123b565b60048111156107d8576107d861123b565b90525092915050565b6000828152602081905260409020600101546107fc81610f0c565b6108068383610f16565b50505050565b6001600160a01b03811633146108355760405163334bd91960e11b815260040160405180910390fd5b61083f8282610fa8565b505050565b7f65d7a28e3265b37a6474929f336521b332c1681b933f6cb9f3376673440d862a61086e81610f0c565b610876611013565b50565b610881610d71565b600081815260036020526040902060016003820154600160281b900460ff1660048111156108b1576108b161123b565b146108cf5760405163121d82a160e11b815260040160405180910390fd5b80546001600160a01b031633146108f95760405163ea8e4eb560e01b815260040160405180910390fd5b600381015464ffffffffff1642101561092557604051632cc8960360e11b815260040160405180910390fd5b6003818101805465ff00000000001916600160281b8302179055506001810180546001600160a01b0381169182905560009182526004602052604082208054600160a01b9092046001600160601b0316928392610983908490611424565b9091555050815460018301546109af916001600160a01b0391821691166001600160601b038416611065565b81546040516001600160a01b039091169084907fe95884ba5110c16afe6da4b181d619c4a785bc60192b7e96ed8d8892bd5594da90600090a350506108766001600255565b7f65d7a28e3265b37a6474929f336521b332c1681b933f6cb9f3376673440d862a610a1e81610f0c565b610876611096565b610a2e610d4b565b610a36610d71565b600082815260036020526040902060016003820154600160281b900460ff166004811115610a6657610a6661123b565b14610a845760405163121d82a160e11b815260040160405180910390fd5b60028101546040805160208101859052016040516020818303038152906040528051906020012014610ac95760405163abab6bd760e01b815260040160405180910390fd5b600381015464ffffffffff164210610af45760405163506b27c560e11b815260040160405180910390fd5b60038101805465ff00000000001916650200000000001790556001810180546001600160a01b0381169182905560009182526004602052604082208054600160a01b9092046001600160601b0316928392610b50908490611424565b90915550506001820154610b77906001600160a01b0316336001600160601b038416611065565b604051339085907f89111f34adafcb7060c3c072eafa91feed3e90154074d498bbf3620002fe68bf90600090a350506106ff6001600255565b6000918252602082815260408084206001600160a01b0393909316845291905290205460ff1690565b610be1610d71565b600081815260036020526040902060016003820154600160281b900460ff166004811115610c1157610c1161123b565b14610c2f5760405163121d82a160e11b815260040160405180910390fd5b80546001600160a01b03163314610c595760405163ea8e4eb560e01b815260040160405180910390fd5b60038101805465ff00000000001916650400000000001790556001810180546001600160a01b0381169182905560009182526004602052604082208054600160a01b9092046001600160601b0316928392610cb5908490611424565b909155505081546001830154610ce1916001600160a01b0391821691166001600160601b038416611065565b81546040516001600160a01b039091169084907f1ed784ea0b4551753ccb1bbf1711421d8a07aff605d39bb9d770c25943aea48590600090a350506108766001600255565b600082815260208190526040902060010154610d4181610f0c565b6108068383610fa8565b60015460ff1615610d6f5760405163d93c066560e01b815260040160405180910390fd5b565b6002805403610d9357604051633ee5aeb560e01b815260040160405180910390fd5b60028055565b8035610db85760405163bc5ed0b360e01b815260040160405180910390fd5b610dc860808201606083016113ab565b6001600160601b0316600003610df15760405163162908e360e11b815260040160405180910390fd5b6080810135610e135760405163bc5ed0b360e01b815260040160405180910390fd5b42610e2460c0830160a084016113d4565b64ffffffffff1611610e485760405162d36c8560e81b815260040160405180910390fd5b6000610e5a604083016020840161133d565b6001600160a01b03161480610e8757506000610e7c606083016040840161133d565b6001600160a01b0316145b156108765760405163e6c4247b60e01b815260040160405180910390fd5b6040516001600160a01b0384811660248301528381166044830152606482018390526108069186918216906323b872dd906084015b604051602081830303815290604052915060e01b6020820180516001600160e01b0383818316178352505050506110d1565b6108768133611147565b6000610f228383610bb0565b610fa0576000838152602081815260408083206001600160a01b03861684529091529020805460ff19166001179055610f583390565b6001600160a01b0316826001600160a01b0316847f2f8788117e7eff1d82e926ec794901d17c78024a50270940304540a733656f0d60405160405180910390a4506001610304565b506000610304565b6000610fb48383610bb0565b15610fa0576000838152602081815260408083206001600160a01b0386168085529252808320805460ff1916905551339286917ff6391f5c32d9c69d2a47ea670b442974b53935d1edc7fd64eb21e047a839171b9190a4506001610304565b61101b611180565b6001805460ff191690557f5db9ee0a495bf2e6ff9c91a7834c1ba4fdd244a5e8aa4e537bd38aeae4b073aa335b6040516001600160a01b03909116815260200160405180910390a1565b6040516001600160a01b0383811660248301526044820183905261083f91859182169063a9059cbb90606401610eda565b61109e610d4b565b6001805460ff1916811790557f62e78cea01bee320cd4e420270b5ea74000d11b0c9f74754ebdbfc544b05a25833611048565b600080602060008451602086016000885af1806110f4576040513d6000823e3d81fd5b50506000513d9150811561110c578060011415611119565b6001600160a01b0384163b155b1561080657604051635274afe760e01b81526001600160a01b03851660048201526024015b60405180910390fd5b6111518282610bb0565b6106ff5760405163e2517d3f60e01b81526001600160a01b03821660048201526024810183905260440161113e565b60015460ff16610d6f57604051638dfc202b60e01b815260040160405180910390fd5b6000602082840312156111b557600080fd5b81356001600160e01b0319811681146111cd57600080fd5b9392505050565b600060c082840312156111e657600080fd5b50919050565b600080610180838503121561120057600080fd5b61120a84846111d4565b91506112198460c085016111d4565b90509250929050565b60006020828403121561123457600080fd5b5035919050565b634e487b7160e01b600052602160045260246000fd5b6005811061126f57634e487b7160e01b600052602160045260246000fd5b9052565b600060c08201905060018060a01b03808451168352806020850151166020840152506001600160601b0360408401511660408301526060830151606083015264ffffffffff608084015116608083015260a08301516112d560a0840182611251565b5092915050565b80356001600160a01b03811681146112f357600080fd5b919050565b6000806040838503121561130b57600080fd5b82359150611219602084016112dc565b6000806040838503121561132e57600080fd5b50508035926020909101359150565b60006020828403121561134f57600080fd5b6111cd826112dc565b602081016103048284611251565b60006020828403121561137857600080fd5b813580151581146111cd57600080fd5b60006020828403121561139a57600080fd5b813560ff811681146111cd57600080fd5b6000602082840312156113bd57600080fd5b81356001600160601b03811681146111cd57600080fd5b6000602082840312156113e657600080fd5b813564ffffffffff811681146111cd57600080fd5b634e487b7160e01b600052601160045260246000fd5b80820180821115610304576103046113fb565b81810381811115610304576103046113fb56fea264697066735822122030aa3fdc04fef5ceca95835b74c01b37131a160d238dff9bb4226da0a96bc7cc64736f6c63430008180033",
  "linkReferences": {},
  "deployedLinkReferences": {}
}