{
  "_format": "hh-sol-artifact-1",
  "contractName": "SharedEscrow",
  "sourceName": "contracts/SharedEscrow.sol",
  "abi": [
    {
      "inputs": [
        {
          "internalType": "address",
          "name": "admin",
          "type": "address"
        }
      ],
      "stateMutability": "nonpayable",
      "type": "constructor"
    },
    {
      "inputs": [],
      "name": "AccessControlBadConfirmation",
      "type": "error"
    },
    {
      "inputs": [
        {
          "internalType": "address",
          "name": "account",
          "type": "address"
        },
        {
          "internalType": "bytes32",
          "name": "neededRole",
          "type": "bytes32"
        }
      ],
      "name": "AccessControlUnauthorizedAccount",
      "type": "error"
    },
    {
      "inputs": [],
      "name": "AlreadyExpired",
      "type": "error"
    },
    {
      "inputs": [],
      "name": "EnforcedPause",
      "type": "error"
    },
    {
      "inputs": [],
      "name": "ExpectedPause",
      "type": "error"
    },
    {
      "inputs": [],
      "name": "InvalidAddress",
      "type": "error"
    },
    {
      "inputs": [],
      "name": "InvalidAmount",
      "type": "error"
    },
    {
      "inputs": [],
      "name": "InvalidExpiry",
      "type": "error"
    },
    {
      "inputs": [],
      "name": "InvalidRecipientHash",
      "type": "error"
    },
    {
      "inputs": [],
      "name": "NotYetExpired",
      "type": "error"
    },
    {
      "inputs": [],
      "name": "ReentrancyGuardReentrantCall",
      "type": "error"
    },
    {
      "inputs": [
        {
          "internalType": "address",
          "name": "token",
          "type": "address"
        }
      ],
      "name": "SafeERC20FailedOperation",
      "type": "error"
    },
    {
      "inputs": [],
      "name": "TransferExists",
      "type": "error"
    },
    {
      "inputs": [],
      "name": "TransferNotPending",
      "type": "error"
    },
    {
      "anonymous": false,
      "inputs": [
        {
          "indexed": false,
          "internalType": "address",
          "name": "account",
          "type": "address"
        }
      ],
      "name": "Paused",
      "type": "event"
    },
    {
      "anonymous": false,
      "inputs": [
        {
          "indexed": true,
          "internalType": "bytes32",
          "name": "role",
          "type": "bytes32"
        },
        {
          "indexed": true,
          "internalType": "bytes32",
          "name": "previousAdminRole",
          "type": "bytes32"
        },
        {
          "indexed": true,
          "internalType": "bytes32",
          "name": "newAdminRole",
          "type": "bytes32"
        }
      ],
      "name": "RoleAdminChanged",
      "type": "event"
    },
    {
      "anonymous": false,
      "inputs": [
        {
          "indexed": true,
          "internalType": "bytes32",
          "name": "role",
          "type": "bytes32"
        },
        {
          "indexed": true,
          "internalType": "address",
          "name": "account",
          "type": "address"
        },
        {
          "indexed": true,
          "internalType": "address",
          "name": "sender",
          "type": "address"
        }
      ],
      "name": "RoleGranted",
      "type": "event"
    },
    {
      "anonymous": false,
      "inputs": [
        {
          "indexed": true,
          "internalType": "bytes32",
          "name": "role",
          "type": "bytes32"
        },
        {
          "indexed": true,
          "internalType": "address",
          "name": "account",
          "type": "address"
        },
        {
          "indexed": true,
          "internalType": "address",
          "name": "sender",
          "type": "address"
        }
      ],
      "name": "RoleRevoked",
      "type": "event"
    },
    {
      "anonymous": false,
      "inputs": [
        {
          "indexed": true,
          "internalType": "bytes32",
          "name": "transferId",
          "type": "bytes32"
        },
        {
          "indexed": true,
          "internalType": "address",
          "name": "recipient",
          "type": "address"
        }
      ],
      "name": "TransferClaimed",
      "type": "event"
    },
    {
      "anonymous": false,
      "inputs": [
        {
          "indexed": true,
          "internalType": "bytes32",
          "name": "transferId",
          "type": "bytes32"
        },
        {
          "indexed": true,
          "internalType": "address",
          "name": "sender",
          "type": "address"
        },
        {
          "indexed": true,
          "internalType": "bytes32",
          "name": "recipientHash",
          "type": "bytes32"
        },
        {
          "indexed": false,
          "internalType": "address",
          "name": "token",
          "type": "address"
        },
        {
          "indexed": false,
          "internalType": "uint96",
          "name": "amount",
          "type": "uint96"
        },
        {
          "indexed": false,
          "internalType": "uint40",
          "name": "expiry",
          "type": "uint40"
        }
      ],
      "name": "TransferCreated",
      "type": "event"
    },
    {
      "anonymous": false,
      "inputs": [
        {
          "indexed": true,
          "internalType": "bytes32",
          "name": "transferId",
          "type": "bytes32"
        }
      ],
      "name": "TransferExpired",
      "type": "event"
    },
    {
      "anonymous": false,
      "inputs": [
        {
          "indexed": true,
          "internalType": "bytes32",
          "name": "transferId",
          "type": "bytes32"
        },
        {
          "indexed": true,
          "internalType": "address",
          "name": "refundAddress",
          "type": "address"
        }
      ],
      "name": "TransferRefunded",
      "type": "event"
    },
    {
      "anonymous": false,
      "inputs": [
        {
          "indexed": false,
          "internalType": "address",
          "name": "account",
          "type": "address"
        }
      ],
      "name": "Unpaused",
      "type": "event"
    },
    {
      "inputs": [],
      "name": "DEFAULT_ADMIN_ROLE",
      "outputs": [
        {
          "internalType": "bytes32",
          "name": "",
          "type": "bytes32"
        }
      ],
      "stateMutability": "view",
      "type": "function"
    },
    {
      "inputs": [],
      "name": "OPERATOR_ROLE",
      "outputs": [
        {
          "internalType": "bytes32",
          "name": "",
          "type": "bytes32"
        }
      ],
      "stateMutability": "view",
      "type": "function"
    },
    {
      "inputs": [],
      "name": "PAUSER_ROLE",
      "outputs": [
        {
          "internalType": "bytes32",
          "name": "",
          "type": "bytes32"
        }
      ],
      "stateMutability": "view",
      "type": "function"
    },
    {
      "inputs": [
        {
          "internalType": "bytes32",
          "name": "transferId",
          "type": "bytes32"
        },
        {
          "internalType": "address",
          "name": "recipient",
          "type": "address"
        },
        {
          "internalType": "bytes32",
          "name": "expectedRecipientHash",
          "type": "bytes32"
        }
      ],
      "name": "claimTransfer",
      "outputs": [],
      "stateMutability": "nonpayable",
      "type": "function"
    },
    {
      "inputs": [
        {
          "components": [
            {
              "internalType": "bytes32",
              "name": "transferId",
              "type": "bytes32"
            },
            {
              "internalType": "address",
              "name": "token",
              "type": "address"
            },
            {
              "internalType": "address",
              "name": "fundingWallet",
              "type": "address"
            },
            {
              "internalType": "uint96",
              "name": "amount",
              "type": "uint96"
            },
            {
              "internalType": "bytes32",
              "name": "recipientHash",
              "type": "bytes32"
            },
            {
              "internalType": "uint40",
              "name": "expiry",
              "type": "uint40"
            }
          ],
          "internalType": "struct SharedEscrow.CreateParams",
          "name": "params",
          "type": "tuple"
        },
        {
          "components": [
            {
              "internalType": "bool",
              "name": "enabled",
              "type": "bool"
            },
            {
              "internalType": "uint256",
              "name": "value",
              "type": "uint256"
            },
            {
              "internalType": "uint256",
              "name": "deadline",
              "type": "uint256"
            },
            {
              "internalType": "uint8",
              "name": "v",
              "type": "uint8"
            },
            {
              "internalType": "bytes32",
              "name": "r",
              "type": "bytes32"
            },
            {
              "internalType": "bytes32",
              "name": "s",
              "type": "bytes32"
            }
          ],
          "internalType": "struct SharedEscrow.PermitInput",
          "name": "permit",
          "type": "tuple"
        }
      ],
      "name": "createTransfer",
      "outputs": [],
      "stateMutability": "nonpayable",
      "type": "function"
    },
    {
      "inputs": [
        {
          "internalType": "bytes32",
          "name": "transferId",
          "type": "bytes32"
        }
      ],
      "name": "expireTransfer",
      "outputs": [],
      "stateMutability": "nonpayable",
      "type": "function"
    },
    {
      "inputs": [
        {
          "internalType": "bytes32",
          "name": "role",
          "type": "bytes32"
        }
      ],
      "name": "getRoleAdmin",
      "outputs": [
        {
          "internalType": "bytes32",
          "name": "",
          "type": "bytes32"
        }
      ],
      "stateMutability": "view",
      "type": "function"
    },
    {
      "inputs": [
        {
          "internalType": "bytes32",
          "name": "transferId",
          "type": "bytes32"
        }
      ],
      "name": "getTransfer",
      "outputs": [
        {
          "components": [
            {
              "internalType": "address",
              "name": "sender",
              "type": "address"
            },
            {
              "internalType": "address",
              "name": "token",
              "type": "address"
            },
            {
              "internalType": "uint96",
              "name": "amount",
              "type": "uint96"
            },
            {
              "internalType": "bytes32",
              "name": "recipientHash",
              "type": "bytes32"
            },
            {
              "internalType": "uint40",
              "name": "expiry",
              "type": "uint40"
            },
            {
              "internalType": "enum SharedEscrow.Status",
              "name": "status",
              "type": "uint8"
            }
          ],
          "internalType": "struct SharedEscrow.Transfer",
          "name": "",
          "type": "tuple"
        }
      ],
      "stateMutability": "view",
      "type": "function"
    },
    {
      "inputs": [
        {
          "internalType": "bytes32",
          "name": "role",
          "type": "bytes32"
        },
        {
          "internalType": "address",
          "name": "account",
          "type": "address"
        }
      ],
      "name": "grantRole",
      "outputs": [],
      "stateMutability": "nonpayable",
      "type": "function"
    },
    {
      "inputs": [
        {
          "internalType": "bytes32",
          "name": "role",
          "type": "bytes32"
        },
        {
          "internalType": "address",
          "name": "account",
          "type": "address"
        }
      ],
      "name": "hasRole",
      "outputs": [
        {
          "internalType": "bool",
          "name": "",
          "type": "bool"
        }
      ],
      "stateMutability": "view",
      "type": "function"
    },
    {
      "inputs": [
        {
          "internalType": "address",
          "name": "",
          "type": "address"
        }
      ],
      "name": "lockedBalance",
      "outputs": [
        {
          "internalType": "uint256",
          "name": "",
          "type": "uint256"
        }
      ],
      "stateMutability": "view",
      "type": "function"
    },
    {
      "inputs": [],
      "name": "pause",
      "outputs": [],
      "stateMutability": "nonpayable",
      "type": "function"
    },
    {
      "inputs": [],
      "name": "paused",
      "outputs": [
        {
          "internalType": "bool",
          "name": "",
          "type": "bool"
        }
      ],
      "stateMutability": "view",
      "type": "function"
    },
    {
      "inputs": [
        {
          "internalType": "bytes32",
          "name": "transferId",
          "type": "bytes32"
        },
        {
          "internalType": "address",
          "name": "refundAddress",
          "type": "address"
        }
      ],
      "name": "refundTransfer",
      "outputs": [],
      "stateMutability": "nonpayable",
      "type": "function"
    },
    {
      "inputs": [
        {
          "internalType": "bytes32",
          "name": "role",
          "type": "bytes32"
        },
        {
          "internalType": "address",
          "name": "callerConfirmation",
          "type": "address"
        }
      ],
      "name": "renounceRole",
      "outputs": [],
      "stateMutability": "nonpayable",
      "type": "function"
    },
    {
      "inputs": [
        {
          "internalType": "bytes32",
          "name": "role",
          "type": "bytes32"
        },
        {
          "internalType": "address",
          "name": "account",
          "type": "address"
        }
      ],
      "name": "revokeRole",
      "outputs": [],
      "stateMutability": "nonpayable",
      "type": "function"
    },
    {
      "inputs": [
        {
          "internalType": "bytes4",
          "name": "interfaceId",
          "type": "bytes4"
        }
      ],
      "name": "supportsInterface",
      "outputs": [
        {
          "internalType": "bool",
          "name": "",
          "type": "bool"
        }
      ],
      "stateMutability": "view",
      "type": "function"
    },
    {
      "inputs": [
        {
          "internalType": "bytes32",
          "name": "transferId",
          "type": "bytes32"
        }
      ],
      "name": "transferStatus",
      "outputs": [
        {
          "internalType": "enum SharedEscrow.Status",
          "name": "",
          "type": "uint8"
        }
      ],
      "stateMutability": "view",
      "type": "function"
    },
    {
      "inputs": [],
      "name": "unpause",
      "outputs": [],
      "stateMutability": "nonpayable",
      "type": "function"
    }
  ],
  "bytecode": "0x60806040523480156200001157600080fd5b506040516200163c3803806200163c8339810160408190526200003491620001a3565b60016002556001600160a01b038116620000855760405162461bcd60e51b815260206004820152600e60248201526d18591b5a5b881c995c5d5a5c995960921b604482015260640160405180910390fd5b62000092600082620000f4565b50620000bf7f97667070c54ef182b0f5858b034beac1b6f3089aa2d3188bb1e8929f4fa9b92982620000f4565b50620000ec7f65d7a28e3265b37a6474929f336521b332c1681b933f6cb9f3376673440d862a82620000f4565b5050620001d5565b6000828152602081815260408083206001600160a01b038516845290915281205460ff1662000199576000838152602081815260408083206001600160a01b03861684529091529020805460ff19166001179055620001503390565b6001600160a01b0316826001600160a01b0316847f2f8788117e7eff1d82e926ec794901d17c78024a50270940304540a733656f0d60405160405180910390a45060016200019d565b5060005b92915050565b600060208284031215620001b657600080fd5b81516001600160a01b0381168114620001ce57600080fd5b9392505050565b61145780620001e56000396000f3fe608060405234801561001057600080fd5b50600436106101215760003560e01c806391d14854116100ad578063c9f19f9211610071578063c9f19f921461027e578063d547741f14610291578063e5b10d12146102a4578063e63ab1e9146102b7578063f5b541a6146102de57600080fd5b806391d14854146101f55780639ae697bf14610208578063a217fddf14610228578063bb10065c14610230578063bfd790301461024357600080fd5b806336568abe116100f457806336568abe146101b45780633f4ba83a146101c75780635c975abb146101cf5780638456cb59146101da5780638ed90a9e146101e257600080fd5b806301ffc9a714610126578063248a9ca31461014e578063260958a51461017f5780632f2ff15d1461019f575b600080fd5b61013961013436600461115a565b6102f3565b60405190151581526020015b60405180910390f35b61017161015c36600461118b565b60009081526020819052604090206001015490565b604051908152602001610145565b61019261018d36600461118b565b61032a565b60405161014591906111dc565b6101b26101ad366004611261565b610408565b005b6101b26101c2366004611261565b610433565b6101b261046b565b60015460ff16610139565b6101b26104a0565b6101b26101f0366004611261565b6104d2565b610139610203366004611261565b610633565b61017161021636600461128d565b60046020526000908152604090205481565b610171600081565b6101b261023e36600461118b565b61065c565b61027161025136600461118b565b60009081526003602081905260409091200154600160281b900460ff1690565b60405161014591906112a8565b6101b261028c3660046112ce565b610737565b6101b261029f366004611261565b610b44565b6101b26102b23660046112fb565b610b69565b6101717f65d7a28e3265b37a6474929f336521b332c1681b933f6cb9f3376673440d862a81565b61017160008051602061140283398151915281565b60006001600160e01b03198216637965db0b60e01b148061032457506301ffc9a760e01b6001600160e01b03198316145b92915050565b6103606040805160c08101825260008082526020820181905291810182905260608101829052608081018290529060a082015290565b600082815260036020818152604092839020835160c08101855281546001600160a01b039081168252600183015490811693820193909352600160a01b9092046001600160601b031693820193909352600283015460608201529082015464ffffffffff8116608083015290919060a0830190600160281b900460ff1660048111156103ee576103ee6111a4565b60048111156103ff576103ff6111a4565b90525092915050565b60008281526020819052604090206001015461042381610cfe565b61042d8383610d08565b50505050565b6001600160a01b038116331461045c5760405163334bd91960e11b815260040160405180910390fd5b6104668282610d9a565b505050565b7f65d7a28e3265b37a6474929f336521b332c1681b933f6cb9f3376673440d862a61049581610cfe565b61049d610e05565b50565b7f65d7a28e3265b37a6474929f336521b332c1681b933f6cb9f3376673440d862a6104ca81610cfe565b61049d610e57565b6000805160206114028339815191526104ea81610cfe565b6104f2610e92565b600083815260036020526040902060016003820154600160281b900460ff166004811115610522576105226111a4565b14610540576040516308cd5ef960e31b815260040160405180910390fd5b600381015464ffffffffff1642101561056c57604051632cc8960360e11b815260040160405180910390fd5b6003818101805465ff00000000001916600160281b8302179055506001810180546001600160a01b0381169182905560009182526004602052604082208054600160a01b9092046001600160601b03169283926105ca908490611346565b909155505060018201546105f1906001600160a01b0316856001600160601b038416610eba565b6040516001600160a01b0385169086907fe95884ba5110c16afe6da4b181d619c4a785bc60192b7e96ed8d8892bd5594da90600090a350506104666001600255565b6000918252602082815260408084206001600160a01b0393909316845291905290205460ff1690565b60008051602061140283398151915261067481610cfe565b600082815260036020526040902060016003820154600160281b900460ff1660048111156106a4576106a46111a4565b146106c2576040516308cd5ef960e31b815260040160405180910390fd5b600381015464ffffffffff164210156106ee57604051632cc8960360e11b815260040160405180910390fd5b60038101805465ff000000000019166504000000000017905560405183907f9a973cea438ef193e7f1ad66ab4be14e35e92b5beadccbb092bf604a43fdb87490600090a2505050565b61073f610f19565b60008051602061140283398151915261075781610cfe565b61075f610e92565b61076883610f3f565b6107756020830183611359565b1561084f5761078a604084016020850161128d565b6001600160a01b031663d505accf6107a8606086016040870161128d565b30602086013560408701356107c36080890160608a0161137b565b6040516001600160e01b031960e088901b1681526001600160a01b0395861660048201529490931660248501526044840191909152606483015260ff166084820152608085013560a482015260a085013560c482015260e401600060405180830381600087803b15801561083657600080fd5b505af115801561084a573d6000803e3d6000fd5b505050505b82356000908152600360205260408120906003820154600160281b900460ff166004811115610880576108806111a4565b1461089e57604051636f6df15960e11b815260040160405180910390fd5b6108ec6108b1606086016040870161128d565b306108c2608088016060890161139e565b6001600160601b03166108db6040890160208a0161128d565b6001600160a01b031692919061104b565b6040518060c0016040528085604001602081019061090a919061128d565b6001600160a01b0316815260200185602001602081019061092b919061128d565b6001600160a01b03168152602001610949608087016060880161139e565b6001600160601b031681526080860135602082015260400161097160c0870160a088016113c7565b64ffffffffff168152602001600190528435600090815260036020818152604092839020845181546001600160a01b039182166001600160a01b031990911617825591850151938501516001600160601b0316600160a01b0293909116929092176001830155606083015160028301556080830151908201805464ffffffffff90921664ffffffffff1983168117825560a08501519265ffffffffffff191617600160281b836004811115610a2857610a286111a4565b0217905550610a40915050608085016060860161139e565b6001600160601b031660046000610a5d604088016020890161128d565b6001600160a01b03166001600160a01b031681526020019081526020016000206000828254610a8c91906113ee565b90915550506080840135610aa6606086016040870161128d565b6001600160a01b031685357fbbd4a5d6727958c71509266b4c5a62b7c0858fc8a30418bfeaedef6244c29535610ae26040890160208a0161128d565b610af260808a0160608b0161139e565b610b0260c08b0160a08c016113c7565b604080516001600160a01b0390941684526001600160601b03909216602084015264ffffffffff169082015260600160405180910390a4506104666001600255565b600082815260208190526040902060010154610b5f81610cfe565b61042d8383610d9a565b610b71610f19565b600080516020611402833981519152610b8981610cfe565b610b91610e92565b600084815260036020526040902060016003820154600160281b900460ff166004811115610bc157610bc16111a4565b14610bdf576040516308cd5ef960e31b815260040160405180910390fd5b828160020154141580610bf0575082155b15610c0e5760405163d6a2ffd560e01b815260040160405180910390fd5b600381015464ffffffffff164210610c395760405163506b27c560e11b815260040160405180910390fd5b60038101805465ff00000000001916650200000000001790556001810180546001600160a01b0381169182905560009182526004602052604082208054600160a01b9092046001600160601b0316928392610c95908490611346565b90915550506001820154610cbc906001600160a01b0316866001600160601b038416610eba565b6040516001600160a01b0386169087907f89111f34adafcb7060c3c072eafa91feed3e90154074d498bbf3620002fe68bf90600090a3505061042d6001600255565b61049d8133611084565b6000610d148383610633565b610d92576000838152602081815260408083206001600160a01b03861684529091529020805460ff19166001179055610d4a3390565b6001600160a01b0316826001600160a01b0316847f2f8788117e7eff1d82e926ec794901d17c78024a50270940304540a733656f0d60405160405180910390a4506001610324565b506000610324565b6000610da68383610633565b15610d92576000838152602081815260408083206001600160a01b0386168085529252808320805460ff1916905551339286917ff6391f5c32d9c69d2a47ea670b442974b53935d1edc7fd64eb21e047a839171b9190a4506001610324565b610e0d6110c6565b6001805460ff191690557f5db9ee0a495bf2e6ff9c91a7834c1ba4fdd244a5e8aa4e537bd38aeae4b073aa335b6040516001600160a01b03909116815260200160405180910390a1565b610e5f610f19565b6001805460ff1916811790557f62e78cea01bee320cd4e420270b5ea74000d11b0c9f74754ebdbfc544b05a25833610e3a565b6002805403610eb457604051633ee5aeb560e01b815260040160405180910390fd5b60028055565b6040516001600160a01b0383811660248301526044820183905261046691859182169063a9059cbb906064015b604051602081830303815290604052915060e01b6020820180516001600160e01b0383818316178352505050506110e9565b60015460ff1615610f3d5760405163d93c066560e01b815260040160405180910390fd5b565b8035610f5e5760405163d6a2ffd560e01b815260040160405180910390fd5b610f6e608082016060830161139e565b6001600160601b0316600003610f975760405163162908e360e11b815260040160405180910390fd5b6080810135610fb95760405163d6a2ffd560e01b815260040160405180910390fd5b42610fca60c0830160a084016113c7565b64ffffffffff1611610fee5760405162d36c8560e81b815260040160405180910390fd5b6000611000604083016020840161128d565b6001600160a01b0316148061102d57506000611022606083016040840161128d565b6001600160a01b0316145b1561049d5760405163e6c4247b60e01b815260040160405180910390fd5b6040516001600160a01b03848116602483015283811660448301526064820183905261042d9186918216906323b872dd90608401610ee7565b61108e8282610633565b6110c25760405163e2517d3f60e01b81526001600160a01b0382166004820152602481018390526044015b60405180910390fd5b5050565b60015460ff16610f3d57604051638dfc202b60e01b815260040160405180910390fd5b600080602060008451602086016000885af18061110c576040513d6000823e3d81fd5b50506000513d91508115611124578060011415611131565b6001600160a01b0384163b155b1561042d57604051635274afe760e01b81526001600160a01b03851660048201526024016110b9565b60006020828403121561116c57600080fd5b81356001600160e01b03198116811461118457600080fd5b9392505050565b60006020828403121561119d57600080fd5b5035919050565b634e487b7160e01b600052602160045260246000fd5b600581106111d857634e487b7160e01b600052602160045260246000fd5b9052565b600060c08201905060018060a01b03808451168352806020850151166020840152506001600160601b0360408401511660408301526060830151606083015264ffffffffff608084015116608083015260a083015161123e60a08401826111ba565b5092915050565b80356001600160a01b038116811461125c57600080fd5b919050565b6000806040838503121561127457600080fd5b8235915061128460208401611245565b90509250929050565b60006020828403121561129f57600080fd5b61118482611245565b6020810161032482846111ba565b600060c082840312156112c857600080fd5b50919050565b60008061018083850312156112e257600080fd5b6112ec84846112b6565b91506112848460c085016112b6565b60008060006060848603121561131057600080fd5b8335925061132060208501611245565b9150604084013590509250925092565b634e487b7160e01b600052601160045260246000fd5b8181038181111561032457610324611330565b60006020828403121561136b57600080fd5b8135801515811461118457600080fd5b60006020828403121561138d57600080fd5b813560ff8116811461118457600080fd5b6000602082840312156113b057600080fd5b81356001600160601b038116811461118457600080fd5b6000602082840312156113d957600080fd5b813564ffffffffff8116811461118457600080fd5b808201808211156103245761032461133056fe97667070c54ef182b0f5858b034beac1b6f3089aa2d3188bb1e8929f4fa9b929a26469706673582212204dff4e1e5cff9134da08bd5054c620b27f3f0b0f11da2e95f9ee5496299c04bb64736f6c63430008180033",
  "linkReferences": {},
  "deployedLinkReferences": {}
}